:020000041000EA
:1000000000B5324B212058609868022188439860DF
:10001000D860186158612E4B002199600221596106
:100020000121F02299502B49196001219960352056
:1000300000F044F80222904214D00621196600F024
:1000400034F8196E01211966002018661A6600F04E
:100050002CF8196E196E196E052000F02FF8012189
:100060000842F9D1002199601B49196000215960AB
:100070001A491B48016001219960EB211966A021F2
:10008000196600F012F800219960164914480160C1
:100090000121996001BC002800D000471248134993
:1000A000086003C880F30888084703B5996A0420EC
:1000B0000142FBD001200142F8D103BD02B5186610
:1000C0001866FFF7F2FF186E186E02BD00000240BE
:1000D000000000180000070000035F00212200005C
:1000E000F4000018222000A00001001008ED00E03C
:1000F00000000000000000000000000074B24E7A12
:1001000000200420F7010010C3010010C5010010F9
:10011000C1010010C1010010C1010010C101001097
:10012000C1010010C1010010C1010010C701001081
:10013000C1010010C1010010C9010010CB01001065
:10014000CD010010CD010010CD010010CD01001037
:10015000CD010010CD010010CD010010CD01001027
:10016000CD010010CD010010CD010010CD01001017
:10017000CD010010CD010010CD010010CD01001007
:10018000CD010010CD010010CD010010CD010010F7
:10019000CD010010CD010010CD010010CD010010E7
:1001A000CD010010CD010010CD010010CD010010D7
:1001B000CD010010CD010010CD010010CD010010C7
:1001C00000BE00BE00BE00BE00BE00BE00F04BF888
:1001D000103800BEF2EB887180830010A4830010F9
:1001E0003402001090A31AE700202149086006C8D5
:1001F00081F3088810471F48006800282FD10DA4FC
:100200000ECC002902D000F012F8F9E71A491B4A77
:10021000002000E001C19142FCD1194988471949E9
:1002200088471949884700BEFDE701C901C29A42C3
:10023000FBD37047A4830010C000002010040020EE
:10024000F48600100000042000000420F486001052
:1002500000100420001004200000000070470B482C
:1002600003F068F80047EFF30580C0B27047000064
:1002700008ED00E0000000D010040020FC12002077
:1002800091180010F5040010611900105756000075
:1002900006005250ABB36053F07B00100600525082
:1002A000861C0302007C0010060052505422A29DBE
:1002B000107C001005005250DE65F468F4860010D2
:1002C000F8B5C04610B5064C2378002B07D1054B76
:1002D000002B02D0044800E000BF0123237010BDB2
:1002E0001805002000000000A06D0010044B10B5A0
:1002F000002B03D00349044800E000BF10BDC046F6
:10030000000000001C050020A06D001010B50C209E
:1003100000F03CF9D0231B06802252015A625A6138
:1003200010BD10B50B2000F031F9D0231B06802240
:1003300012015A625A6110BD70B5FFF7F2FFD02466
:10034000240680252D01A561034800F0D3FE6561D8
:10035000024800F0CFFEF2E700E86E030074B70138
:1003600010B5040000F012F90123A340D0221206B8
:10037000536210BD10B5040000F008F90123A3403A
:10038000D0221206936201220021200000F0E4F83E
:1003900010BD10B5040000F0F9F80123A340D022ED
:1003A00012065362536110BD70B5002514E0AE0013
:1003B0000B4BF0580B4C2B0118510B4AB258E41858
:1003C0006260FFF7D7FF6068FFF7CAFF074BF0587E
:1003D000E060FFF7DEFF0135022DE8DD70BDC046AD
:1003E000FC020020100A0020F00200200803002078
:1003F00010B5FFF78BFFFFF7D7FF10BD10B5002238
:100400000BE0074B1401D02109064868E158C840A9
:10041000012101401B1919720132022AF1DD10BDC0
:10042000100A002010B5002309E019010F4A5218E4
:10043000516801228A40D02109064A610133022B0A
:10044000F3DDFA20800000F055FEFFF7D7FF002310
:1004500009E01901054A5218516801228A40D02149
:1004600009068A610133022BF3DD10BD100A00205A
:1004700070B50023002009E019011B4A5218D16809
:1004800001228A40D02109064A610133022B10DC87
:100490001901154A5218127A002AEDD008001249A3
:1004A0000918C86801218140D02000068161100030
:1004B000EBE7002801D1002312E0D0242406802598
:1004C0006D01A561094800F015FE6561F3E799002B
:1004D000074A895801228A40D02109064A6101331E
:1004E000022BF4DD70BDC046100A002030750000FC
:1004F0000803002010B503F0D9FF084803F09AFF65
:10050000074806F0DBFBFFF773FFFFF78BFFFFF7F2
:10051000AFFF044800F0EEFDF7E7C046A06D001005
:100520003903001080CBA40010B58300084A94461C
:1005300063441C6840226240C0241440802252015F
:1005400013431C60C000034B9C466044416010BDD7
:1005500004C001400040014080000B4B9C466044B9
:1005600000290DD00823002A0CD00422134302686E
:1005700053400C2213408022520110430360704705
:100580000023F0E70022F1E704C0014010B5012389
:100590008340D0221206936293610521FFF7C4FFC6
:1005A00010BD0000EFF3108072B6034B1B68002BE8
:1005B000FBD0BFF35F8F70472C0100D0BFF35F8F7C
:1005C000024B00221A6080F3108870472C0100D083
:1005D000F8B505000C001600FFF7E4FFE308EF187C
:1005E000EA5C072121401300CB40DB0707D401233D
:1005F0008B40DBB213433B70FFF7E0FFF8BD2100F7
:10060000300001F0CFF9F0B583B00600019114007D
:100610001F00FFF7C7FF050000E00134BC420ED801
:10062000E208B018B15C072222400B00D340DB0780
:10063000F3D401239340DBB21943017001E001249C
:1006400064422800FFF7BAFF002C02DB200003B051
:10065000F0BD019B002BF9D0089801F0A3F9000030
:10066000002307E0054A9A189200BFF35F8F00212C
:10067000116001331F2BF5D97047C046400000348C
:10068000054A1078431CDBB21370172B02D91300F4
:1006900010221A707047C0461403002000B583B0C2
:1006A0000100044B00931F2318220348FFF7ABFF00
:1006B00003B000BDBC6D001074090020034B1B6823
:1006C00002201840431E9841C0B2704700C0064047
:1006D00040BF00200021704770B505000C000800E5
:1006E00000F098FD200000F07DFE0849200000F099
:1006F000BDFDFFF7C5FF064B9C4660448000686067
:100700002C75A400034BE55070BDC046ED090010E8
:1007100040000034C810002010B5002922D0036822
:100720001B7B99421ED8174B9C4661440901836884
:100730009C4661440C684968002A19D003681B7BF9
:100740009A4215D883680F488446624412019A1869
:1007500010685368020001208B4201D80ED000209F
:10076000C0B210BD084B094A3921094801F0FCF814
:10077000054B064A3921064801F0F6F8A242EFD8A7
:10078000EDE7C046FFFFFF0F306E00100C71001048
:10079000EC6D001010B500291ED0037B99421BD8C8
:1007A0004B005B18033B0468A4466344002919D03E
:1007B000002A1DD0914221D0002A25D0047BA242DC
:1007C00022D80468500080180338201881701978E6
:1007D00000291FD11A7010BD104B114A6921114810
:1007E00001F0C2F8104B114A70310E4801F0BCF80C
:1007F0000F4B0E4A71210B4801F0B6F80D4B0B4A16
:100800007221084801F0B0F8044B054A69210548F7
:1008100001F0AAF841701A70DDE7C046646E00105E
:1008200078710010806E0010D86E001054710010A6
:10083000E46E0010F06E001070B506000D0014009C
:10084000002914D0002A14D08068736898470028C3
:1008500006D0220029003000FFF79CFF280007E0A7
:100860002A0021003000FFF795FF200000E0100073
:1008700070BD0800FCE70000F0B583B005000092F1
:1008800001930AAB1C780BAB1F78002C26D00368B1
:100890005A7B944207D10123002B19D1002C3BD164
:1008A000200003B0F0BD002C0CD01A7B944209D874
:1008B0001A6863001B19033BD3189B78002BEBD0FD
:1008C0000123E9E73E4B3F4A69213F4801F04CF8DC
:1008D0003E4B3F4A62213F4801F046F803689C7B4B
:1008E000002CDBD012D01A7B94420FD86200121970
:1008F000033A19688C46624451789973002900D1F3
:10090000D9730023937053701370C7E72C4B2D4A93
:1009100069212D4801F028F8002C3AD02B681B7B68
:100920009C4236D82C4BE3181B01AA6894466344BA
:10093000009A1A60019A5A60089A9A60099ADA60D5
:100940002E68002C2BD030D0337B9C422DD86300F6
:100950001B19033B32689446634400229A705A7014
:100960001A70717B22003000FFF766FF70738442BB
:1009700000D095E7287D009A019B00F0BFFC061E81
:1009800001D0002F17D00C9B002B00D188E71E70E0
:1009900086E7124B124A39210E4800F0E5FF114B51
:1009A000114AA621084800F0DFFF054B054A6921DE
:1009B000054800F0D9FF2868210000F0EDFEE2E7CD
:1009C000646E001078710010806E0010086F0010C7
:1009D00084710010EC6D0010FFFFFF0F306E0010EF
:1009E0000C710010E86D001068710010F0B5DE4663
:1009F00057464E464546E0B58BB009900023089314
:100A00008200B24BD658370032E0B14BB14A3D219B
:100A1000B14800F0A9FFB14BB14A3921B14800F00B
:100A2000A3FFB14BB14A8921AE4800F09DFFB04B06
:100A3000AE4A8D21AB4800F097FFA84BAD4A3E214E
:100A4000A84800F091FF2A686B68099800F056FCEE
:100A500000239A4698467B68BFF35F8F00221A6096
:100A600086F310884346002B51D1002800D126E19F
:100A700000F0DCFB02000B1EC7DB0020002106900B
:100A800007917868EFF3108672B601680029FCD0F0
:100A9000BFF35F8F396888464C7B002C32D0BAD0C8
:100AA000097B8C42B7D8944965182D01B9688C46EA
:100AB000654428686968801A99410029C3DC01D11E
:100AC0000028C0D10021404600F05CFEA042A8D121
:100AD0002A686B6806920793AB689846EB689A465B
:100AE0004346002BA3D0002CA7D03B681B7B9C4225
:100AF000A3D8631EFA68D35C08931B0218433861BD
:100B00000020A8E700239A4698460020A3E7089B08
:100B10001B022343994651461800C04705000E00AA
:100B20007A68EFF3108B72B6136859424B41D9B211
:100B3000002BF9D1BFF35F8F002E26DB002E52DD94
:100B40003B69002B53D04B4572D100F06FFB020084
:100B50000B1E73DB0100180052197341984202D832
:100B600004D1914202D901225242D317002B6BDBF0
:100B700000210491013103910294514601914146B3
:100B800000913800FFF778FE49E03B69002BD5D093
:100B90004B451CD1069A079B10001900521BB3410C
:100BA000994202D804D1904202D901225242D3176D
:100BB000002B12DB00210491013103910294514674
:100BC0000191414600913800FFF756FE27E04B4B5C
:100BD000464A9C21434800F0C7FE3D4B3D4A3D211B
:100BE0003D4800F0C1FE002E01D1002DA8D13A6889
:100BF000002C45D0537B9C422CD1012100293FD1B0
:100C0000D37B002B42D1D473002C52D03B681B7B8A
:100C10009C424ED8FA68013C135D01331355002302
:100C20003B617A68BFF35F8F13608BF310881FE717
:100C3000324B2E4A9F212B4800F096FE244B254A2A
:100C40003D21254800F090FE214B224A3D212248BB
:100C500000F08AFE002C0DD0137B9C420AD8630062
:100C60001B19033B1068844663449B78002BC5D056
:100C70000121C3E7224B234A6921234800F074FE77
:100C8000224B234AF721204800F06EFE002B0AD0A9
:100C9000117B8B4207D85900CB18033B11688C4657
:100CA00063445C70AFE7164B164A6921164800F0A2
:100CB0005BFE0A4B0F4A3E210A4800F055FE0BB07E
:100CC000F0BCBB46B246A946A046F0BDC810002005
:100CD000306F0010D87000104C6F0010306E001094
:100CE0000C710010EC6D0010A06F0010F07000107F
:100CF000B86F001030710010FFFFFF0FC46F0010BD
:100D0000646E001078710010806E0010007000108A
:100D10004471001010B5084B5B68002B00D010BD6B
:100D2000054C2300054A1021206800F04BFC0321EC
:100D30002000FFF7D1FCF2E718030020190700108C
:100D400010B5064B5B68002B01D0044810BD044B66
:100D5000044A5921044800F007FEC0461803002049
:100D60002470001018710010EC6D0010F0B5DE4614
:100D700057464E464546E0B58BB0804616001F00EC
:100D8000149B9A46159B994616AB1B789B461F23CE
:100D900002AA9446634400221A7032E0002809D067
:100DA00042461268127B904204D8421E4146C968EE
:100DB0008A5C48E0434B444A3E21444800F0D4FD5D
:100DC0000798002B75D05B46002B72D04946D04760
:100DD00004000D0003000B4300D171E0002946DB45
:100DE00000F024FA06000F1E55DB36196F41B94298
:100DF00002D804D1B04202D901267642F717002F5B
:100E00004FDB43465A68EFF3108472B613685942B9
:100E10004B41D9B20791002BF8D1BFF35F8F1F333D
:100E200002AA9446634404930023039302934B461F
:100E300001935346009332003B004046FFF71CFDF0
:100E4000031EABD1020041464968BFF35F8F002506
:100E50000D6084F31088002B29D01F2302A98C4633
:100E600063441B78002BABD112021043A9E7320078
:100E70003B00361BAF41BB4202D804D1B24202D97B
:100E800001267642F717002FBBDA114B114A3D219C
:100E9000114800F069FD0E4B0E4A3D210E4800F04E
:100EA00063FD0B4B0B4A3D210B4800F05DFD01201B
:100EB00040420BB0F0BCBB46B246A946A046F0BDCE
:100EC0000798F6E7306E001030710010EC6D0010DE
:100ED000306F0010D87000104C6F0010F8B504008F
:100EE0004268EFF3108572B6136858424341D8B296
:100EF000002BF9D1BFF35F8FCBB22268567BB34290
:100F00001BD10120002847D0206988422BD0090A34
:100F1000C9B2002B2DD02068007B834229D8581EEF
:100F2000E668305C88422AD000206368BFF35F8F98
:100F300000221A6085F31088F8BD002B0DD0167BB7
:100F4000B3420AD85E00F618033E1768BC466644F2
:100F5000B678002ED6D00120D4E7124B124A692170
:100F6000124800F001FD124B124AFB21124800F01A
:100F7000FBFC124B124A3E210F4800F0F5FC190011
:100F8000100000F009FC0028CFD181210D4B094A47
:100F90004900094800F0E8FC23698B42C5D10023D1
:100FA0002361C2E7646E001078710010806E00103B
:100FB00048700010C0700010EC6D0010306E001012
:100FC000307100106C700010F0B587B006000F0093
:100FD000FFF749F900281FD106246442E517A41938
:100FE0007D41BD4202D803D1B44201D9002400257D
:100FF000002D14DB0494059500F018F902000B1E77
:1010000013DBA41A9D41002D17DC14D030003900E9
:1010100000F018F907B0F0BD1A4800F0C3FC1A4BF5
:101020001A4A3D211A4800F09FFC174B174A3D21F0
:10103000174800F099FC002CE8D0FFF781FE002350
:1010400002930193134B0093049A059BFFF78EFEC6
:10105000002806DADAE7002300E00023002BD5D1D0
:1010600020BF0499059A0C4B5B6A9A42F5D80A484E
:10107000806A884203D29A42EDD00123EEE7012331
:10108000ECE7C04670700010306F0010D870001090
:101090004C6F0010D106001000400540F8B5040068
:1010A0000D0000F0C3F802000B1E10DB2000290029
:1010B000801859418B4202D804D1824202D90120C2
:1010C0004042C117002908DBFFF77EFFF8BD064B41
:1010D000064A3D21064800F047FC034B034A3D21E8
:1010E000034800F041FCC046306F0010D87000107B
:1010F0004C6F001010B5FA2292000023002102F07C
:10110000D5FFFFF7CBFF10BD70B584B006000C0013
:10111000FFF716FE002302930193194B0093320050
:101120002300FFF723FE051E11DD20BFFFF708FE99
:101130002900FFF7D3FE134B5B6A9C421BD8114A70
:10114000926AB2421AD29C4213D0012014E00D4B95
:101150005B6A9C4209D80B4A926AB24207D29C420F
:1011600001D0012008E0002006E0002004E001207A
:1011700002E0002000E0002004B070BD0120FBE789
:10118000D10600100040054070B5EFF305833F2005
:1011900018401038EFF3108C72B6194B1B68002BF7
:1011A000FBD0BFF35F8F012319008140154A5163C3
:1011B000154A12781400C440234214D0114B5C6AC3
:1011C0008300124D5B599C4206D38300104C1B597F
:1011D0008A430D490A7007E00A4A031D9B0099588B
:1011E0009950002300E00023BFF35F8F044A0021E1
:1011F00011608CF31088002B00D0984770BDC0465A
:10120000280100D000400540FA120020E41200201E
:101210006409002010B50100024A0348FFF7D8F91D
:1012200010BDC0469C710010F7120020044B5B6A91
:10123000034A906A1900536A9942F9D17047C0462F
:1012400000400540084B5B6A01E0074B5B6A8B423C
:10125000FBD301E0044B5B6A8B4203D1024B9B6AD8
:101260008342F7D37047C0460040054070B5040084
:101270000D00EFF3108672B61B4B1B68002BFBD0E2
:10128000BFF35F8F002D1CD0200000F00DFE174B28
:1012900083420BD01900200000F00EFE0121200037
:1012A00000F0F2FD0123A340114A1360A400114B8A
:1012B000E550BFF35F8F0C4B00221A6086F3108855
:1012C00070BDA2000B4B0021D1500122A2400A495F
:1012D0000B7893430B700549200000F017FE0021A6
:1012E000200000F0D1FDE4E7280100D089110010B2
:1012F0003860054064090020FA120020F0B5DE468F
:1013000000B584B00400150001921E000293FFF79F
:101310008DFF03958E4202D84ED185424CD9EFF312
:10132000108B72B6274B1B68002BFBD0BFF35F8F6F
:10133000254A17780125A540EBB23B431370234B98
:101340005D63221D92000199D150A20020490298AC
:1013500050501B6A2B4212D11C4B1B6C2B4208D0E5
:101360000020BFF35F8F174B00221A608BF31088A9
:1013700023E0184B184AB321184800F0F5FAFFF79C
:1013800055FF8E4214D802D1039B834210D80E4BD6
:101390001B78BB420ED00D4B1D625D631F200440C5
:1013A0000123A3400E4A1360074B1F701E38D8E775
:1013B0000020D6E70120D4E7012004B080BCBB4662
:1013C000F0BDC046280100D0FA12002000400540C0
:1013D000E4120020C071001034720010E47100109B
:1013E00080E200E0EFF3108C72B60B4B1B68002B11
:1013F000FBD0BFF35F8F01238340084A1362084983
:101400000A789A430A70BFF35F8F034B00221A6079
:101410008CF310887047C046280100D0004005407A
:10142000FA120020024B9C4661448900016070471B
:101430004000003410B50400FFF722F9010020003D
:10144000FFF7F0FFFF232371BFF35F8F10BD10B5CF
:10145000FFF7E8FFBFF35F8F10BD10B50400012058
:10146000FFF71CF901002000FFF7F1FF10BD00009D
:1014700010B500291ED0037B99421BD84B005B1886
:10148000033B0468A4466344002919D0002A1DD0F8
:10149000914221D0002A25D0047BA24222D80468A0
:1014A00050008018033820188170197800291FD146
:1014B0001A7010BD104B114A6921114800F054FAFE
:1014C000104B114A70310E4800F04EFA0F4B0E4A85
:1014D00071210B4800F048FA0D4B0B4A7221084865
:1014E00000F042FA044B054A6921054800F03CFA35
:1014F00041701A70DDE7C046646E00100C74001075
:10150000806E0010D86E0010F8730010E46E0010AA
:10151000F06E001070B506000D001400002914D004
:10152000002A14D0806873689847002806D02200EB
:1015300029003000FFF79CFF280007E02A00210067
:101540003000FFF795FF200000E0100070BD08009C
:10155000FCE7000010B50023437301338373037B62
:10156000C3730123027B9A4214D9002B0CD0027B57
:10157000934209D85A00D218033A01688C46624453
:101580000133DBB25370EDE70B4B0C4A69210C4879
:1015900000F0EAF9002A09D0924207D80168530006
:1015A0009A18033A8A180023537010BD024B034A5D
:1015B0006921034800F0D8F9646E00100C74001023
:1015C000806E001010B5017342608360FFF7C2FFA8
:1015D00010BD000070B50400081E00D170BD0029C8
:1015E00034D0237B994231D84B005B18033B2268EF
:1015F000944663445A78002AF0D02DD0237B9A4237
:101600002AD853009B18033B21688C4663445D78BD
:1016100000215970002825D0237B984222D843000E
:101620001B18033B21688C4663440021597001005C
:101630002000FFF76FFF060029002000FFF7CAFF18
:10164000020031002000FFF765FFC7E7084B094A99
:101650006921094800F088F9054B064A69210648C6
:1016600000F082F9024B034A6921034800F07CF93B
:10167000646E00100C740010806E001070B50500D0
:101680000C001600002928D02DD0037B99422AD8BF
:101690004B005B18033B0268944663445A78002A67
:1016A00027D19A78002A2AD11978FFF793FF0300EF
:1016B000002E03D0EA7B002A27D1EC73002B37D110
:1016C000002C49D02B7B9C4246D82B6861000C191A
:1016D000033C1C190023637070BD224B224A382141
:1016E000224800F041F9224B224A6921224800F0A9
:1016F0003BF9224B1C4A3A211C4800F035F9204B9B
:10170000194A3B21194800F02FF9002A0AD0297BF9
:101710008A4207D851008A18033A29688C466244E5
:101720005470CAE7124B134A6921134800F01CF9A0
:10173000002B0BD02A7B934208D843001B18033B95
:101740002A689446634400229A70B9E7084B094A14
:101750006921094800F008F9054B064A6921064845
:1017600000F002F90C730010E47300101473001001
:10177000646E00100C740010806E0010587300101E
:101780008073001070B504000A00457B2900FFF744
:1017900075FF6073280070BD70B50400002967D024
:1017A000437B8B420ED0002911D0037B99420ED887
:1017B0004B005B18033B0268D0188378002B0CD1D8
:1017C000002056E00121FFF7DDFF012051E0294B09
:1017D000294A6921294800F0C7F8002B20D0227B34
:1017E00093421DD85A00D318033B2268D2182568AB
:1017F000EB5C8B421AD0002B1BD0227B934218D873
:101800005A00D318033B2268D21853788B4216D063
:10181000002BF0D11A4B1B4A67211B4800F0A4F89B
:10182000144B154A6921154800F09EF8437813704F
:1018300007E0104B104A6921104800F095F84378F2
:10184000537000238370437001222000FFF716FFBE
:101850000200617B814205D02000FFF75BFE6073D0
:10186000012006E0094B074A6D21074800F07CF88B
:10187000002070BD646E00100C740010806E0010AB
:10188000A4730010CC73001014730010AC7300101C
:1018900070B5234B234A1A60234B244A1A60244B09
:1018A0009A68224B9343FAD1224C01E008CC984726
:1018B000214B9C42FAD300F001F91B4B1F4A1A60DE
:1018C0001B4B9B68DB43DB01FAD11D4B40229A671F
:1018D0005A671A67DA661B4C03E02000FFF7AAFD7F
:1018E0000834194B9C42F8D3184CA168184DC022FB
:1018F000280002F09BFCA560FEF7B5FC002800D094
:1019000000BEFEF7ADFE00F063FCFFF703FA114CDA
:1019100001E008CC9847104B9C42FAD370BDC046FA
:1019200000E00040BFCDFFFF00F00040FE7F3C0024
:1019300000C00040FC0300200C040020FFFFFF015A
:1019400000F00140EC030020FC03002000ED00E06B
:10195000000000200C0400201004002000BEFDE761
:1019600010B5FFF7FBFF000010B582B00C001900A6
:10197000002A0CD0084B002A0BD0019200932300C0
:101980000200064802F086FD0120FFF7E7FF044B46
:10199000F1E7034AF1E7C0461874001028740010FC
:1019A000247400100FB400B583B0084802F042FD63
:1019B000049B002B07D005A90191180002F048FDF7
:1019C000034802F037FD0120FFF7C8FF58740010EC
:1019D00068740010F8B5D646474680B506000D007D
:1019E0001700089A934243D3190E1802089A00234D
:1019F00001F03EFD80467400A419A4002A4B9C46C9
:101A000064446368834200D26060331FDBB29A464D
:101A1000012B33D9C0239B012343802212011A607A
:101A2000B300224A9958002905D0506901F0DAFC28
:101A300001300138FDD17F0122685740E022174074
:101A400080235B0123431F605246012A21D9802352
:101A50009B012343802212011A6043466360B60053
:101A6000124B089AF2500120C0BCBA46B046F8BDED
:101A70000F4B104A2E211048FFF776FF012DC9D1D8
:101A8000C0239B01234303221A60A368DB07FCD514
:101A9000D1E72168694003220A401A60A268012345
:101AA000AB401342FAD0D2E7008000407809002012
:101AB0006C740010D07400108074001030B583B0C6
:101AC0000C2000F08DF8FEF7F9FD00280DD0002362
:101AD00004E09900334A344888500133092BF8D97F
:101AE000304B324A5A6203B030BD314B00229A6704
:101AF00000F0E4F82F4B01221A602D4B5B6C012B98
:101B0000FBD12D4B03221A60294B9B6B012BFBD180
:101B1000C0239B01294A1360294A1360294B9A6804
:101B2000C0239B019343F9D1022400940633264A33
:101B30000121264800F0D6F800940523244A01210B
:101B4000244800F0CFF8244B009300220221042007
:101B5000FFF740FF214D00952B00002201210520B9
:101B6000FFF738FF104C00942300002200210720CB
:101B7000FFF730FF00942300002200210820FFF728
:101B800029FF0A4B00932300002200210920FFF7C0
:101B900021FF00952B00002200210620FFF71AFFED
:101BA000A1E7C04678090020006CDC021BB70000EA
:101BB000008000403CB0004030B0004000E00040F9
:101BC00000F0004000C00040002F68590080024033
:101BD00000389C1C00C00240001BB700405973072E
:101BE00080239B000343014AD36270470080054075
:101BF000024B1A68024B5A607047C046C010002062
:101C00000080054010B50200144B8020C00518600C
:101C1000134B1448186000291BD0134BE021C90452
:101C20001960002A00D1323253019B1A98008018A3
:101C300000010E4B186080235B04984202D30B4BCB
:101C40000B4A1A60FFF7D4FF074B8022D2051A60B7
:101C500010BD024BE021C9041960E2E700B0054065
:101C600008200140FCFF010000A00540C01000203A
:101C7000FFFFFF0010B5030010000C4A8024E405AC
:101C80001460002B0DD001221343094A094CD46182
:101C9000094C5C401462516293620021FFF7B2FF6D
:101CA00010BD034B0022DA61F7E7C04600B00540E3
:101CB00000800540D3C007B02D3FF84F064BAA2245
:101CC00012011A602F22DA60044B054A1A60024B97
:101CD0005B68002BFBDA7047004002400060024066
:101CE00000B0FA00F0B5CE4600B5040089461600F3
:101CF0001D0001235B424360002383600C2001F040
:101D000071FB07004B46236043011B1A9901C91A56
:101D1000C90009188901300001F064FB0200103A83
:101D200098235B009A4220D86B1E062B23D8069B73
:101D3000013B062B1FD8069B9D4222D33209BA4293
:101D400025D3A060221DC0239B01134321221A60CA
:101D50002268002AFCDA2D04069A16033543E56052
:101D600008221A6080BCB946F0BD0C4B0C4A1A21FF
:101D70000C48FFF7F9FD0C4B094A1D210948FFF7F4
:101D8000F3FD0A4B064A23210648FFF7EDFD084BF9
:101D9000034A27210348FFF7E7FDC046E07400101F
:101DA000C8750010FC740010487500109475001080
:101DB000AC750010074B9B68103080001950BFF3C2
:101DC0005F8FBFF35F8F044B0021196082F310888F
:101DD0007047C04600ED00E0240100D010B5091A9C
:101DE00004394808090B05D14005400D044B184340
:101DF00080B210BD034B044A8C210448FFF7B4FDA8
:101E000000E0FFFFD4750010EC770010E4750010BF
:101E100010B5091A04394C08090B08D14905490DB8
:101E2000064A11430180064B2343438010BD054BF6
:101E3000054A94210548FFF797FDC04600F0FFFFD3
:101E400000F8FFFFD4750010C0770010E475001093
:101E500001238340034A10681840431E9841C0B2D2
:101E60007047C04600E100E0002904D0034B186031
:101E7000034B18607047034B1860FBE780E200E0FB
:101E800000E100E080E100E010B50123834018008C
:101E9000FFF7EAFF10BD000001238340014A1360F1
:101EA0007047C04600E200E0024B9B6810308000A3
:101EB000C058704700ED00E070B504000D00EFF36E
:101EC000108672B60C4B1B68002BFBD0BFF35F8FE4
:101ED0002000FFF7E9FF094B984201D0A84205D145
:101EE000320029002000FFF765FF70BD044B054A52
:101EF00070210548FFF738FD240100D0CD01001006
:101F00003076001008780010E4750010F0B5CE4669
:101F1000474680B583B006000D00EFF3108872B617
:101F2000574B1B68002BFBD0BFF35F8F554B9A6854
:101F300034001034A300D758534B9F4207D0AF4210
:101F400000D19BE00197514BFB1A2F2B09D9424638
:101F500039003000FFF72EFF03B0C0BCB946B046D1
:101F6000F0BD3000FFF774FF814600213000FFF71D
:101F70008BFFBFF35F8FFEF776F9002801D0844214
:101F800019D10123019C9C43230040495B1A5B410A
:101F900048495943090D49B20022A368AB4212D007
:101FA0000622A256002A0DDB53009B189B0022003C
:101FB000364CE418F1E72021354B364AFF313648DC
:101FC000FFF7D2FC2200AB4251D106256557002D08
:101FD00039DB6B005B199A002C4B9B189A68A26046
:101FE000DA79E27106229A56A2719B795BB2002BD4
:101FF00010DABD200002A0806B005B199B00234A11
:10200000D318264A11789971157049463000FFF7A8
:102010003BFF9CE7201D6B005B199B001B4A9B1834
:102020001A1D9B88D90A1C2907D15B055B15023351
:1020300059005118FFF7D2FEDDE7194B194A9A21D2
:102040001548FFF791FC00280CD1002A08D0FF2387
:102050009371154B9380114B1A78A2711970D4E7C4
:10206000094FF8E7201D1149FFF7D2FECDE7AA215D
:102070000F4B084A49000848FFF776FC024F66E715
:10208000240100D000ED00E0CD010010400300204D
:1020900044770010D8770010E4750010F812002083
:1020A0002C770010F877001000BDFFFF7A030020A6
:1020B00068770010AAAA000010B5032304009C430F
:1020C000064A9446644422681840C000FC338340AA
:1020D0009A43130081400B43236010BD00E400E0ED
:1020E00070B50400012606432D4BF31A2F2B28D878
:1020F000FEF7B9F800282BD0EFF3108C72B6294BFD
:102100001B68002BFBD0BFF35F8F2300244D5B1BAC
:102110005B412E4D5D432D0D6DB2234B9B688000BE
:102120001B58B3421BD00022032A32D853009B18FD
:102130009B001B49CB189B795BB2AB421FD001328D
:10214000F2E77221194B1A4AFF311A48FFF70CFCCB
:10215000BA21194B164A49001648FFF705FC124BE5
:102160009B68164A1A50164B1A78A2711D70BFF35D
:102170005F8F0C4B00221A608CF3108870BD080032
:102180005300991889004118FF268E710D4A8A80E4
:10219000E9E786210C4B064AFF310648FFF7E4FBCE
:1021A00040030020240100D000ED00E07077001013
:1021B000A4770010E475001098770010CD0100108E
:1021C000F812002000BDFFFFA4730010AAAA0000AF
:1021D00010B5002404E080212000FFF76DFF0134DA
:1021E0001F2CF8D910BD704710B5002802D00B681D
:1021F0004968984710BD0100002007E083001B18C4
:102200005B00501C08601078C01830380A681378DA
:10221000303BDBB2092BF1D97047F0B5DE465746AB
:102220004E464546E0B583B093461F000C9B9A4648
:102230000D9C0E9B99460F9B9B0703D0B8460F0041
:10224000060022E00192A34688464E46B9460700A2
:10225000B44207D2551C4B4641462020B8470134B2
:102260002A00F5E73D004F465C46019B9B46B14680
:102270004646B84637002E0007E0013C551C534641
:10228000185D43463900B0472A00002CF5D13500CF
:102290003E0047460F9B9B0707D4100003B0F0BCDD
:1022A000BB46B246A946A046F0BDB0464E46B9462A
:1022B0002F005D46531BB342EFD2541C4B464146A0
:1022C0002020B8472200F5E7F0B5CE46474680B556
:1022D00085B0944698460C9D0D9C0EAB1B78994694
:1022E000109A119B129EB7071CD4002B0CD0F70735
:1022F0000AD54F46002F02D10C37374204D0013B9C
:1023000002E030272F550134944201D21F2CF8D916
:10231000F70707D59C4205D21F2C03D830272F552D
:102320000134F5E7F70615D5770505D4002C03D061
:10233000944224D09C4222D00F9A102A2BD00F9A7C
:10234000102A30D00F9A022A35D01F2C02D8302202
:102350002A5501341F2C05D84A46002A31D02D2297
:102360002A55013403960293019400954346624630
:10237000FFF753FF05B0C0BCB946B046F0BD621EC2
:10238000012C06D00F9F102F01D01400D4E7023C7F
:10239000D2E71400D0E7B206D1D41F2CCFD87822D0
:1023A0002A550134D1E7B206CCD51F2CCAD8582201
:1023B0002A550134C9E71F2CC7D860322A55013489
:1023C000C3E7720703D52B222A550134CAE7320727
:1023D000C8D520222A550134C4E7F0B5DE46574659
:1023E0004E464546E0B593B081468A460892099329
:1023F0001CAB10CB1B789B461E9D219B9846002C46
:1024000003D1102342469A4390468023DB00464680
:102410001E4042461A4212D0002C22D000260EE066
:102420003033D9B2771C0AAB99552900200000F04F
:10243000D9FFAC4216D31F2F14D83E000400290048
:10244000200000F0CFFFCBB2092BE9D9424692061B
:1024500005D54121C918C9B20A39C9B2E2E76121DB
:10246000F8E7270043460693209B05931F9B0493A0
:1024700003955B46029301970AAB0093099B089A68
:1024800051464846FFF720FF13B0F0BCBB46B246AA
:10249000A946A046F0BDF0B5DE4657464E46454635
:1024A000E0B595B0089009910A920B931E9E1F9C6F
:1024B00020AB1B789B46229B9946239D269B9A46E0
:1024C0003300234303D1103352469A43924680236C
:1024D000DB0057461F4052461A4219D033002343AF
:1024E0002DD0002714E03033DAB27B1C98460CABB9
:1024F000DA554A462B003000210000F0B9FFA54212
:102500001FD819D043461F2B1BD8474606000C0086
:102510004A462B003000210000F0AAFFD3B2092B5D
:10252000E1D95246920605D54122D218D2B20A3AD2
:10253000D2B2DAE76122F8E7B145E3D901E000233E
:10254000984653460693259B0593249B04934B463C
:1025500003935B460293434601930CAB00930B9BA2
:102560000A9A09990898FFF7AFFE15B0F0BCBB4670
:10257000B246A946A046F0BDF0B5DE4657464E46E7
:102580004546E0B591B083468A460C9298461A9C1F
:1025900008941B9D099522002B002000290001F0C2
:1025A000DEF9002800D0E5E001225242D74B20009E
:1025B000290001F0CFF9002800D0DBE001225242CF
:1025C000D34B2000290001F0AFF9002800D0D1E062
:1025D00000220023089D2800099E310001F0A4F983
:1025E000002800D0DDE00898099906900791802323
:1025F000DB001E9A1A400D921E9A1A4201D1062340
:102600001C930698079904000D000A000600024377
:1026100000D1D1E0080D4005400DBE4CA4466044F9
:102620000A03120BBC4B13431F0001F0ABF9BB4A6A
:10263000BB4B01F037F9BB4ABB4B01F021F9040059
:102640000D000022B94B3000390001F010F9B84AF2
:10265000B84B01F027F902000B002000290001F01F
:102660000FF901F0A7F9814601F08CF904000D0083
:10267000B14AB24B01F016F90022B14B01F000F95A
:1026800001F098F90600AF4AAF4B2000290001F095
:1026900009F904000D00300001F074F9AB4AAC4BAD
:1026A00001F000F902000B002000290001F0DFF822
:1026B00004000D0002000B0001F0F4F80A900B91E9
:1026C000A44BF31800261F0522002B002000290030
:1026D00001F0D6F80E900F9122002B0000208021EF
:1026E000C90501F0C4F804000D0000229A4B0A98B5
:1026F0000B9901F0CEF80022984B01F0C1F80200CE
:102700000B000A980B9901F0C4F80022944B01F0D9
:10271000B7F802000B000A980B9901F0BAF8020012
:102720000B002000290001F0ABF802000B000E980E
:102730000F9901F0AEF80022774B01F0A1F83200BA
:102740003B0001F0AFF806000F0004000D00069AF0
:10275000079B01F0FFF8002830D001235B429C4624
:10276000E14400227D4B3000390001F092F8040072
:102770000D0023E01E9B04931D9B03931C9B02935F
:10278000089A099B0092019343460C9A5146584679
:1027900000F0FCF811B0F0BCBB46B246A946A0461A
:1027A000F0BD0023002406930794069580231B06A2
:1027B0009C46664407961AE7002399464B466333C6
:1027C000C62B1ED804261E9B1B0526D52B00234393
:1027D0000FD0644A644B0698079901F0B3F80028BB
:1027E00079D00022614B0698079901F09DF80028E6
:1027F00071D01C9B4B4506DD4A46981A431E1C931C
:1028000003E00526DFE700231C938023DB001E9AEC
:102810001A431E920026002399461D9B9E4264D2B5
:102820009F1B02231E9A1A400A921E9A134202D03C
:10283000002E00D000274B46002B07D022002B0093
:102840000698079901F025F80690079100220023C9
:102850000898099901F068F8002848D1444B1E9A5D
:102860001340049303971C9B0293069B079C0093C1
:10287000019443460C9A5146584600F087F8002EC2
:1028800000D187E71E9B9B063DD54525441C43464A
:10289000020051462800D8474B46DA179B18534090
:1028A00005220592013E0496002203920A3202920A
:1028B0004A46D00F019000934346220051465846A5
:1028C000FFF78BFD0A9B002B00D163E702005F46F8
:1028D0000C9E1D9D54E01C9B002B9ED00D9B002B3D
:1028E0009BD01C9B013B1C9397E7002799E7069C14
:1028F000079D2200290080200006844661440B00C9
:1029000006920793AAE76525C0E7C046FFFFEF7F61
:10291000FFFFEFFF01FCFFFF0000F03FFB799F503E
:102920001344D33FB3C8608B288AC63F0000F83FEA
:1029300061436F63A787D23F71A379094F930A4020
:102940000000E03F1655B5BBB16B0240EF39FAFE0F
:10295000422EE63FFF03000000002C400000244010
:10296000000018402D431CEBE2361A3F80842E41B4
:10297000FFF7FFFF541C434651462020B847220072
:10298000931BAB42F6D3100004E7C046F0B5DE4619
:1029900057464E464546E0B595B00690079193469A
:1029A0009946209F1E9A1F9B1000190000F0D7FF28
:1029B000002831D101225242BF4B1E981F9900F0CE
:1029C000B3FF002837D101225242BC4B1E981F99F9
:1029D00000F0C0FF00283DD10022B94B1E981F997E
:1029E00000F0B8FF002850D10022B64B1E981F9966
:1029F00000F09AFF002848D1002200231E981F995A
:102A000000F092FF002850D100239846229B5B05DE
:102A100000D4B6E0002458E0229B0393219B02934C
:102A200003230193A84B00934B465A4607990698F7
:102A3000FFF7F3FB0EE1229B0393219B02930423F8
:102A40000193A24B00934B465A4607990698FFF70D
:102A5000E4FBFFE00423229A1A4022990B4210D093
:102A60009B4B002A0FD004222299039121990291B5
:102A7000019200934B465A4607990698FFF7CDFB03
:102A8000E8E0944BEDE70322EEE7229B0493219BC1
:102A9000039302971E9B1F9C009301944B465A463A
:102AA00007990698FFF768FDD4E01E9A1F9B002047
:102AB000002100F0DCFE1E901F9101239846A5E73F
:102AC0000CAB30221A55013F01341F2C01D8092FBD
:102AD000F6D81E981F9900F06DFF050000F052FF18
:102AE00002000B001E981F9900F0C1FEFA007A4BFD
:102AF0009B181A685B680A920B9300F0D3FE08904B
:102B0000099100F07BFF060000F038FF02000B0087
:102B10000898099900F0ABFE0890099100226F4BCC
:102B200000F018FF00282ED00136300000F026FFFC
:102B300002000B000A980B9900F0FCFE002801D05F
:102B400001350026002F2CD1280000F01BFF0200C9
:102B50000B001E981F9900F08AFE06000F0000224D
:102B60005E4B00F0E1FE002846D100225B4B3000B6
:102B7000390000F0EFFE00283ED1EB073CD50135CF
:102B80003AE0062746E70022544B0898099900F0DE
:102B9000CBFE0028D6D1002E01D0F307D2D50136C6
:102BA000D0E7AA461F2C11D8013F0A21300000F0BF
:102BB00019FC651C30310CAB19550A21300000F0AE
:102BC00011FC092E0ED906002C00EBE755461F2CF0
:102BD0000CD87B1E002F09D00CAA302111551F00E4
:102BE0000134F4E72B0055461C00F0E71F2C03D8F6
:102BF0000CAB2E221A5501341F2C10D80A212800A4
:102C000000F0C4FB661C30310CAB19550A212800BA
:102C100000F0BCFB051E01D03400EDE734000323B7
:102C2000229A1340012B1CD01F2C06D84346002BA0
:102C300032D00CAB2D221A550134229B0393219BD9
:102C4000029301940CAB00934B465A4607990698A1
:102C5000FFF7E3FA15B0F0BCBB46B246A946A04662
:102C6000F0BD219B002B13D04346002B02D10C3327
:102C700013420FD0219B013B2193190003E00CABC1
:102C800030221A5501348C42CED21F2CF7D9CBE713
:102C90002199F8E72199F6E7229B5B0704D50CAB55
:102CA0002B221A550134C8E7229B1B07C5D50CAB54
:102CB00020221A550134C0E7FFFFEFFFFFFFEF7F2F
:102CC00065CDCD4165CDCDC1307800103478001090
:102CD0002878001024780010207A00100000E03FCF
:102CE000F0B5DE4657464E464546E0B593B08246BF
:102CF0008B4690461193002900D1EBE20027554600
:102D0000119B1878002800D1E7E2252809D07C1C07
:102D100043463A005946A847119B013311932700B7
:102D2000EEE7013311930024119A11780B00203B38
:102D3000D8B2102803D88300D048C3589F460B0050
:102D4000303BDBB2092B2CD92A292FD000230A9340
:102D5000119B1A782E2A39D000239A46119A13789B
:102D6000683BD9B2122976D88B00C549CB589F460B
:102D700001231C4301321192D6E702231C43013286
:102D80001192D1E704231C4301321192CCE70823AE
:102D90001C4301321192C7E710231C4301321192E8
:102DA000C2E711A8FFF727FA0A90D1E71C9B1A1D6A
:102DB0001C921868002804DB0A90119B01331193C0
:102DC000C6E702231C4343420A93F6E78022D2005F
:102DD00014435A1C11925A781300303BDBB2092B72
:102DE00004D92A2A07D000239A46B7E711A8FFF78B
:102DF00002FA8246B2E71C9B1A1D1C921868002832
:102E000004DB8246119B01331193A7E70020F8E70A
:102E100080235B002343511C119152786C2A01D00E
:102E20001C0018E0C0239B001C430131119112E0EB
:102E300080232343511C11915278682A01D01C0031
:102E400009E0C0231C430131119104E080235B00A1
:102E50001C4301321192119B18780300253BDAB212
:102E6000532A00D92CE29300864AD3589F468023E8
:102E70009B001C4301321192EDE780235B001C4351
:102E800001321192E7E7782809D0582838D06F2806
:102E900038D0622838D010239C430A2600E0102640
:102EA000582833D0692803D0642801D00C229443D9
:102EB000630501D50122944369282AD0642828D0CB
:102EC000A30500D59FE0E30500D5B8E0630600D474
:102ED000CAE01C9A111D1C911168FF220A4005943A
:102EE0000A9B049353460393029600230193009296
:102EF00043463A0059462800FFF76FFA070027E0DB
:102F00001026CDE70826CBE70226C9E72022144386
:102F1000C8E7A30520D4E30550D4630666D51C9A00
:102F2000111D1C911168FF220A40D317D118594076
:102F300005940A9B0493534603930296D20F019281
:102F4000009143463A0059462800FFF746FA070029
:102F5000119B01331193D3E61C9BDA1D07218A4391
:102F6000110008311C91116853689C46DB170C93C3
:102F70000D930C9A0D9B100048400E9062465340F2
:102F80000F930E980F990C9A0D9B801A99410E90F1
:102F90000F9108940A9B07935346069304960023C7
:102FA00005936346DA0F02920090019143463A007E
:102FB00059462800FFF76FFA0700C9E71C9A111D50
:102FC0001C911268D317D118594005940A9B049399
:102FD000534603930296D20F0192009143463A0062
:102FE00059462800FFF7F9F90700B1E7230605D590
:102FF0001C9A111D1C910023D25E96E71C9A111D8C
:103000001C91126891E71C9BDA1D07218A4311006D
:1030100008311C9108940A9B079353460693049623
:103020000023059302931368546800930194434668
:103030003A0059462800FFF72EFA070088E71C9A45
:10304000111D1C9105940A9B049353460393029609
:10305000002301931368009343463A005946280021
:10306000FFF7BBF9070073E723060DD51C9A111D66
:103070001C9112681204120C31E7C0463C78001013
:1030800080780010CC7800101C9A111D1C911268D9
:1030900025E746281AD01C9B0733072293431A00C2
:1030A00008321C9204940A9A0392524602925C6877
:1030B0001B680093019443463A0059462800FFF7E5
:1030C00065FC0700119B0133119319E620231C4373
:1030D000E1E7672801D0472802D180231B011C4368
:1030E000452801D0472801D120231C431C9B0733CE
:1030F000072293431A0008321C9204940A9A0392FE
:10310000524602925C681B680093019443463A0061
:1031100059462800FFF730FA0700119B013311933D
:10312000EEE502231A002240924623421FD00124DA
:103130001C9B1A1D1C927A1C9146187843463A0033
:103140005946A8475346002B16D1119B01331193C2
:103150004F46D5E5561C434659462020B847230024
:1031600032005C1C9D42F5D83D001700E0E70123CA
:103170003A002F000A9DF4E74A46A9460A9D06E058
:10318000571C434659462020C84734003A00661C65
:10319000A542F5D84D469146D7E71C9B1A1D1C92B7
:1031A0001B6899465346002B00D1013B4E4601E077
:1031B000013613003278002A02D05A1E002BF7D1B4
:1031C0004B46F21A10928023DB0026001E401C4260
:1031D00003D0524501D95346109302231A002240CE
:1031E0000B92234205D03A0037004C46A94655467B
:1031F00020E03A00109B5F46B3462E0006E0551CC7
:10320000434639002020B04723002A005C1C0A995D
:103210009942F4D835005E46BB46109437004C46C0
:10322000A946554606E01D000134561C4346594642
:10323000C84732002078002804D0002FF4D06B1E3D
:10324000002DF0D117004D460B9B002B03D1119B95
:103250000133119354E50A9F109B06E0561C434628
:1032600059462020A847230032005C1C9F42F5D815
:103270001700ECE721231C431C9B1A1D1C921B68A2
:103280000093059408230493534603931023029359
:103290000023019343463A0059462800FFF79DF862
:1032A0000700119B013311932AE57C1C43463A0029
:1032B00059462520A847119B0133119327001FE58C
:1032C0007C1C43463A005946A847119B0133119391
:1032D000270015E50A4B9A4610E5AA46474502D352
:1032E00043465A1E00E03A00434659460020D04764
:1032F000380013B0F0BCBB46B246A946A046F0BDAC
:10330000E721001000B585B00290039101210093E0
:1033100013004A4202A90248FFF7E2FC05B000BDD3
:10332000E921001001480421014B184790030020B7
:103330005533001010B5010018231B881422108883
:10334000984710BD10B5010018231B88162210885D
:10335000984710BDF0B5C64600B507000E00002521
:103360000123984600E00135B5420AD2AC003C1971
:103370002068FFF7DFFF20600028F4D10023984683
:10338000F1E7404680BCB846F0BD0000144A936F98
:103390009B0815D29066D166002905D0FFE7FFE7AC
:1033A000FFE7516F106F704704B580210906C217FF
:1033B0005140002800D0C84303F0D2FC002104BDD6
:1033C000936F5B08FDD3F0B5946ED56E576F166F93
:1033D000FFF7E0FF9466D56657671667F0BD0000FB
:1033E000000000D0134A936F9B0813D210665166F9
:1033F000002905D0FFE7FFE7FFE7516F106F704727
:1034000004B5002801D00020C04303F0A9FC00212E
:1034100004BDC046936F5B08FDD3F0B5946ED56EC6
:10342000576F166FFFF7E2FF9466D566576716670A
:10343000F0BD0000000000D094464E4A926F920802
:10344000624601D230E0C046F0B54A4EB56F6D0815
:10345000FCD3346E756E776F366F00F025F89446A6
:10346000444A14665566576716676246F0BDC04603
:103470009446404A926F9208624601D258E0C04694
:10348000F0B53C4EB56F6D08FCD3346E756E776F3A
:10349000366F00F04DF89446364A14665566576705
:1034A00016676246F0BDC046002B24DB11D0002910
:1034B0003EDA00B5C943404200D1013100F038F88E
:1034C000C943404200D10131DB43524200D10133B4
:1034D00000BD002AEBD1002801D1002905D0002031
:1034E000C90FC90701D1C043410800B503F030FC42
:1034F0000022002300BD00B500290ADBDB43524255
:1035000000D1013300F014F8C943404200D1013129
:1035100000BDC943404200D10131DB43524200D1DA
:10352000013300F005F8DB43524200D1013300BD06
:10353000002923D1002B18D1002A0CD0BC460D4FF6
:1035400038667A6600210023FFE7FFE7FFE77A6F1E
:10355000386F67467047002801D00748010000B562
:1035600003F0F6FB0022002300BD02000B00002048
:1035700000217047000000D0FFFFFFFF002B00D0AC
:10358000BDE0130C26D1002AE7D080B4104F396675
:103590007A66FFE7FFE730B4040C7B6F396F1B04DA
:1035A00023433B66FFE7FFE7FFE7C04684B27B6F3C
:1035B0003D6F1B0423433B66FFE7FFE7C046002344
:1035C0002C042D0C7A6F386F00196941B0BC70471C
:1035D000000000D0F0B594460025140E01D112026F
:1035E0000835140F01D112010435940F01D1920056
:1035F0000235D40F01D152000135D40B0134254FCF
:103600007C66254C3C660E0C93B2FFE7FFE7FFE7B4
:103610003C6F6643360C7703BE467343DF0B5B0497
:10362000C01AB941130C7343DB18C91ACE0866439C
:10363000360CB64493B273431F0F1B01C01AB94135
:10364000130C73431F0B1B05C01AB941860D8F0263
:103650003E436643360C092D24DB520A7243801A1E
:103660007703460A6643360C16235B1BDE40DF40B9
:10367000BF1964466643821B704604350633010059
:10368000D940A840C01900D30131A24206D200237C
:10369000F0BD0000000000D0FFFFFFFF121B013053
:1036A000F3D3F1E709277F1BFE406446A2B27243C1
:1036B000801A00D20139220C7243130C1204821AB0
:1036C00099410B007046043513370100F940A840BA
:1036D000801900D30131002B02D1A2420AD2F0BDE1
:1036E000013000D30131121BFAD2013BF8D1A242C2
:1036F00000D2F0BD013000D30131121BF7E7F0B565
:103700001C0C00D080E00CB400251C0A04D11B0264
:10371000160E3343120208351C0B04D11B01160F81
:103720003343120104359C0B04D19B00960F3343A5
:1037300092000235DC0B02D192185B4101351C006E
:10374000971864410134464F7C66464C3C660E0C2B
:10375000FFE7FFE7FFE7C0463C6F6643360C7703A1
:10376000BE4697B27743C01B00D20139C01B00D2BE
:1037700001399FB27743C91BC91B170C77437E04DD
:10378000FF0B801BB941CE086643360C0C2D33DB92
:10379000B644120B1F053A431B0B97B27743C01B6D
:1037A00000D201399FB27743C91B170C77433E04FF
:1037B0003F0C801BB941860D8F023E43664329278B
:1037C0007F1BFE400C3D7746AF40BF1930BCA2B214
:1037D000ABB272437343801A9941220C7243130CAB
:1037E0001204801A994102000B000137001BA94105
:1037F000F9D2781E0021F0BD0C277F1BFE407746D2
:103800007F0BAF40FF19E0E700245D1C07D0144F89
:103810007D663966FFE7FFE7FFE7FFE73C6F95B29C
:103820009EB265436643401BB141150C1E0C6543B7
:10383000664336042F0C3E432D04401BB141994290
:1038400004D202000B0020000021F0BD01D1904203
:10385000F7D3801A994101349942F2D3F6E7000078
:10386000000000D0FFFFFFFF48404140484018B42F
:10387000114B5B68FC46019308BD04DF073B001059
:1038800018B40D4B1B68FC46019308BD00DF113BCB
:10389000001018B4084BDB68FC46019308BD0CDF30
:1038A000C93D001018B4044B9B68FC46019308BD49
:1038B00008DF6D3C00100000D8100020FFB550401C
:1038C0004240504059404B40594000E0FFB5154F31
:1038D0004C00640D03D0BC4204D10C0314D800206A
:1038E000090D09055C00640D03D0BC4204D11C0322
:1038F0000AD800221B0D1B0501264B4009D44B4062
:1039000003D58B4200D18242FFBD9942FCD1904247
:10391000FFBD0B43DB1803431343F5D0C9434918DC
:10392000FFBD0000FF07000000B5FFF7CFFF80419B
:1039300000BDC04600B5FFF7C9FF01D9002000BD9A
:10394000012000BD00B5FFF7B9FF01D9002000BD7F
:10395000012000BD00B5FFF7B1FF804100BD01208F
:1039600040054A00121804D85A00121801D8002045
:103970007047012070470020704700000021002898
:1039800005D17047C1174840401AFAD0C90713B58E
:10399000064B1B6898470CBC441CA2401005120B38
:1039A0000349091B09051943114310BDD811002013
:1039B0001F04000010B54C00620D8023D218DB00FC
:1039C000D21A5B057E2A10DD9E3A13DACC17090362
:1039D000490819435242D140640001341532202A6B
:1039E00005DAD0400843604310BD002010BD0846F2
:1039F000604310BDC80FC018013810BD18B4044B87
:103A00005B6AFC46019308BD24DFF53F001000000F
:103A1000D810002070B513231C78012C0FD0012C76
:103A20000FDC022C02DC1D4A1D4B9A6470BD99000C
:103A30001A481B4A885001331F2BF8D9EFE700239F
:103A4000FAE71848FFF77EFC05001748FFF77AFCF5
:103A5000023803789B007F2B19DD80222900104853
:103A600000F0E4FB022CDCD1104B1A88B5231B02BA
:103A70009A4209D10E4B1A880E4B9A4204D10E4B32
:103A80001A880E4B9A42CCD00020FDF78BFF0C4BCE
:103A90000C4A30210C48FDF767FFC046CD3A0010B4
:103AA000D810002053440000534600005438000052
:103AB000D8380000494600009C38000059460000F4
:103AC000707A0010247B0010D07A001007B5604691
:103AD000002800D100BE01880A0A0230DF2AFAD18C
:103AE000C9B2820804D3028840880004104300E071
:103AF0000068024A5050039007BD0000D810002013
:103B00000FB403BC0CBCF0B50124E407634000E033
:103B1000F0B50C0DCF0F661E3605891B640503D367
:103B2000C943404200D30131640D03D0661CF60A3C
:103B300007D0E41B00207F00791C89078912803C94
:103B400024031D0DDF0F6E1E36059B1B6D0503D371
:103B5000DB43524200D301336D0D03D06E1CF60AD5
:103B600007D0ED1B00227F007B1C9B079B12803D32
:103B70002D032F1B661B58D4A446202E46DA20376F
:103B80001400BC401D00BD40F24033412A43801860
:103B90005941CB0F05D0C943C04300226442504174
:103BA000514162464D0D28D10D0D07D100281FD07F
:103BB000241940414941013A0D0DF9D0640006D362
:103BC000013000D30131002C01D140084000013AFE
:103BD0000BD4941CE40A04D112051144DB071944E8
:103BE000F0BDD907204B194300E0D9070020F0BDF4
:103BF0000029DDD1002CDBD1F0BD0132C607400821
:103C0000CD0728434908002EE1D0D9E73C2E29DA18
:103C1000203E40371400BC4000D00124F240144341
:103C20001A00BB401C43D317ACE7AC46202F08DA80
:103C300020360400B4400D00B540F8403941284317
:103C4000A5E73C2F0CDA203F40360400B44000D0FA
:103C50000124F84004430800B1400C43C117EAE7CF
:103C600010001900002494E70000F07FF0B50C0D5F
:103C7000661E3605891BE60A6405640D02D0651CC4
:103C8000ED0A04D0002001210905803C2403A4464C
:103C90001C0D671E3F05DB1BE70A6405640D02D09F
:103CA000651CED0A04D0002201231B05803C24037F
:103CB0007740644497B484B296B27443070C7E4351
:103CC000150C6F4380B26843361802D301200004FC
:103CD0003F183004350C00197D41844688B29AB2F1
:103CE00050430C0C62431F0C7C438EB27E439219EE
:103CF00002D301263604A4191604170C361867419E
:103D000001BC81B29AB25143040C62431B0C5C4368
:103D100080B25843121802D3012000042418100462
:103D2000130C401863412D185E410020474106BC2A
:103D300088B293B258430C0C6343120C544389B2BB
:103D400051435B1802D301210904641819041A0CA9
:103D5000091862416D1856410020474118BCF9020C
:103D6000720D1143F0026A0D1043ED020A0D03D1EA
:103D70006D1940414941013B124E9B1B7600B342F5
:103D80000ED26D0007D301300026714166463543DF
:103D900001D1400840001B05C918E4072144F0BDCB
:103DA0000BDA013306D1013004D101314F0D01D0BE
:103DB0004908F2E7E1070020F0BD01363105002097
:103DC000EBE70000FF030000F0B51C0D671E3F0588
:103DD000DB1BE70A6405640D02D0661CF60A04D0FA
:103DE000002201231B05803C2403D0252D0600263C
:103DF000F6432E661E096E66CE0FF619B4464900CC
:103E00004F0D02D07E1CF60A03D000200021403F57
:103E10003F033E1BB600B444013F7F05C91B490860
:103E20002E6F013676089C02950D25437543ED13E0
:103E30007543AD1301356D10F603761B0CB4CC023F
:103E4000450D2C43A2B2B3B25A43270C7B43350C29
:103E50006F43A4B26C431B1902D3012424043F19FD
:103E60001C041D0CA4187D4124196D41009A91B2C7
:103E7000ACB26143170C7C432B0C5F4392B25A43A4
:103E8000A41802D301221204BF182204230C5218D2
:103E90007B41019C6C431B19520ED9010A4344011A
:103EA000A01A81B2B2B2514303145A43360C734381
:103EB00087B27743D617D21900277E4136049B1963
:103EC0001704160C7F185E417316ED18F3010026D7
:103ED00080337541A90F06D16400690AE8055B0AC1
:103EE000184309D22FE00422944480337541A90A73
:103EF000A8059B0A184326D3404149412404009A4F
:103F0000019B0D005543641B4343E41A95B286B2EE
:103F10007543170C7E43030C5F4392B25A43B618A5
:103F200002D301221204BF183204330C52197B4110
:103F300052429C41002C02D40022013051414008E1
:103F4000CA071043490802B06246D7079210084BCF
:103F5000D218084B9A4203D212058918C919F0BD2C
:103F60000020002A01DC3900F0BD01331905F5E716
:103F7000FD030000FE070000624618CA94460029AF
:103F80001ADAC01861415B463B415C46B440524678
:103F9000FA40224344464D4662416B419046994661
:103FA0002B46B3403D41FC401C4352465B46A24178
:103FB000AB4192469B467047C01AA1414B463B41DC
:103FC0004C46B4404246FA40224354465D46624164
:103FD0006B4192469B462B46B3403D41FC401C43FF
:103FE00042464B46A241AB4190469946704700205D
:103FF00000217047002200B5203200F004F80800CC
:1040000000BD000000220B15F1D410B5944600F05D
:104010002FF81414013400DA0021CB17134C204779
:104020006244343A0CD40C2A07DA040091409040E0
:1040300052422032D440214310BDD843D94310BD51
:10404000203207D40C469440524220321141D040D5
:10405000204310BD0800C917203203D45242203239
:10406000104110BD1800190010BD000021400010C3
:104070000A0DCC0F531E1B05C91A520503D3C943A1
:10408000404200D30131520D03D0531CDB0A07D04C
:10409000121B00206400611C89078912803A1203F8
:1040A000014BD21A70470000FF0300005143434305
:1040B000C9188C46110C83B24B4310B4040C6143F5
:1040C00092B280B2504362431C041B0C001910BC16
:1040D00059411304120CC01851416144704700004B
:1040E00070B513231D782A48FFF72CF90400012D21
:1040F00011D0012D09DDA31E1B789B007F2B40DD15
:1041000080222100234800F091F82348FFF712F99C
:10411000224B186070BD542201001E4800F086F842
:104120001F4B1A881F4B9A421CD1A7239B011A8848
:104130001D4B9A4216D11D4B1A881D4B9A4211D124
:104140001C4B1A8894239B019A420BD11A4B1A8854
:104150001A4B9A4206D11A4B1A681A4B9A4201D14D
:10416000152307E01848FDF71DFC99001748094A78
:10417000885001331F2BF8D9144A064B1A62DA61B2
:10418000B7E7134B134A42211348FDF7EDFBC04636
:1041900053460000DC1100204C330000D8110020F1
:1041A000EE290000C40F0000C20D0000962B000095
:1041B000C0B50000182B0000CC2A000010B500008C
:1041C000FC2C000051ED876424740010DD410010C8
:1041D000387B0010C07B00106C7B001007B5604678
:1041E000002800D100BE01880A0A0230DF2AFAD175
:1041F000C9B2820804D3028840880004104300E05A
:104200000068024A5050039007BD0000DC110020F6
:1042100001480421014B1847A0030020553300102A
:10422000014B1B6818470000A0030020014B5B688E
:1042300018470000A0030020F8B507000D00160085
:10424000437C002B02D0002400200CE00368110006
:10425000280098472DE03B7C10E0022115483B6880
:104260009847601C0134B44214DA002CF3DD2B199A
:10427000013B1B780D3B5A425341DBB22A5D0A2AAF
:10428000F0D1002BEED1A042E7DA211A28183B68C2
:104290009847E2E7B04203DA311A28183B6898479A
:1042A000002E06DDAD19013D2B780D3B5A425341DE
:1042B0003B74F8BD4C7C001070B505000368002B02
:1042C00016D00C4B1C6805E0290004C92000FFF73C
:1042D000B3FFE468002C09D02368002BF9D0064B0B
:1042E0001B68002BF0D0A342F3D1EDE700232B6035
:1042F00070BDC046080A00200C0A002070B50500F9
:104300000C000B68802B05D021684B1C23606418BF
:10431000257170BD0800FFF7CFFFF5E710B582B03B
:10432000D0231B061C6801A9064802F021FD0028C5
:1043300006D1019BA34203D0024802F029FD0120CF
:1043400002B010BDF403002010B5024802F0F8FCE2
:1043500010BDC046F4030020F0B5C64600B582B0DB
:1043600006000D001700FFF7D9FF80466B1C02D036
:10437000184B1C6805E0300002F0B2FC0500F7E7BE
:10438000E468002C18D02368002BF9D0124B1B686E
:10439000002B01D0A342F3D12A0031002000FFF707
:1043A0004BFF002FECD06B46D91D0A230B70012266
:1043B0002000FFF741FFE3E74346002B06D16B1EC9
:1043C0009D41E8B202B080BCB846F0BDFFF7BCFF2B
:1043D000F5E7C046080A00200C0A00200C4B1A68BA
:1043E000130001E01A00DB68002B08D08342F9D1EA
:1043F000002903D1DB68D3600023C3607047002924
:10440000FCD0002A01D0D060F8E7014B1860F5E736
:10441000080A002010B5064B1C6801E09847E468C4
:10442000002C03D06368002BF8D1F8E710BDC0461C
:10443000080A002070B5050002F052FC04000122B9
:1044400001002800FFF788FFFFF7E4FF200070BDA0
:1044500070B5A2B004000E00FFF760FF05008422D3
:10446000002101A8FFF7DCFE3300220001A9084863
:10447000FEF748FF040001A8FFF71EFFFFF7CAFF81
:10448000002D02D1200022B070BDFFF75DFFF9E7DB
:10449000FD4200100FB400B583B004A901C9019119
:1044A000FFF7D6FF03B008BC04B0184710B500F002
:1044B00033F910BD70470000014B00221A7070479D
:1044C000F91200204B79FF2B0CD18B79002B0BD1EB
:1044D000CB79012B0AD1082A0AD98A78054B1A70A0
:1044E000092000E0002070470020FCE70020FAE7E8
:1044F0000020F8E7F91200200120704701207047E2
:1045000070B504000D000348FEF714FF03002900F6
:10451000200098475542000010B50A794B791B02DC
:104520001343124A1278934201D0002010BD4B78F9
:10453000012B03D0022B11D00020F7E78B78CA782B
:10454000120213431900D30503D54B0A01209840EA
:1045500000E000207F231940FFF7D2FF64220021F2
:104560000020FDF787FB0120E0E7C046F91200209C
:104570000123037000487047507C001010B50B7881
:104580004878000218438A7812041043CB781B063F
:1045900003439622D200934200D010BD00210800B0
:1045A000FFF7AEFF30B583B005000C0001A9184835
:1045B00002F0DEFB002808D1D0231B061B68019AFD
:1045C0009A4221D0124802F0E3FB002001F0F8FDEE
:1045D000002807D1032464420D4802F0B1FB2000FB
:1045E00003B030BD002001F00FFE002802D10324EB
:1045F0006442F1E722002900002001F015FE041EAC
:10460000EAD103246442E7E703246442E7E7C046B3
:10461000DC12002010B50021054802F0A9FB00289B
:1046200000D110BD01F078FB014802F089FBF8E7EA
:10463000DC120020F0B5C64600B582B080460D0001
:1046400001A92E4802F094FB002808D1D0231B06B4
:104650001B68019A9A420FD0284802F099FB00206B
:1046600001F0AEFD002847D1254B00200021186045
:104670005960224802F064FB02B080BCB846F0BD2D
:1046800001F04AFB002001F0E7FD002001F098FD59
:104690000028EED0002001F05DFE00281DD0AC42C5
:1046A000E7DA2E1B002001F055FE0200864200DCF6
:1046B0003200002AE4D043461919002001F02EFEF2
:1046C000060001F029FB002001F0C6FDA419FCF74B
:1046D000ADFD0B4B18605960E1E7FCF7A7FD084BF7
:1046E0001E685F68074A002392197B419942C0D82F
:1046F000D5D19042D3D9BCE70024D0E7DC1200200A
:104700001005002020A1070010B51F20FDF7C4FBF5
:10471000FA208000002110BD70B584B0244B1B78B6
:1047200002F05AF823491F20FDF7C6FB01211F2084
:10473000FDF7AAFB2048FCF77DFEFCF701FB060015
:10474000FCF774FD04000D1E20DBFA22920000230A
:1047500012196B41994202D804D1904202D9012228
:104760005242D317002B17DB012102910021019146
:10477000124900913000FCF7F9FA0400631E9C41D5
:10478000E4B200280ED1200004B070BD0C4B0D4ADD
:104790003D210D48FDF7E8F8094B0A4A3D210A483A
:1047A000FDF7E2F801210948FFF718FEEBE7C046E4
:1047B000A083001015460010DC12002009470010ED
:1047C000306F00108C7C00104C6F0010B003002084
:1047D00000487047347D001000487047E07C0010AE
:1047E00010B500280BD10F4B0F4A5A80012301331B
:1047F0005B00C022920013430A48038010BD0528C5
:104800000ED88000094BC4580023122BEFD8E25C6D
:10481000002AECD00133590002484252DBB2F4E7DF
:104820000020EBE7E009002009040000487D0010AB
:104830007F220240C3093420584368235343C018E1
:10484000014BC0187047C046400A002010B582B026
:1048500001AB084A1A80002408E001AB185DFFF79D
:10486000E7FF01234371002303750134012CF4D9C0
:1048700002B010BD0080FFFF10B5C36A402B00D806
:10488000402316490A680261D3180B60990604D0C8
:104890003F218B43403311490B60104B19688B0645
:1048A00010D10F4B5A404B40802149018B420FD809
:1048B0003023C35C9B061A43A0231B061A4383685C
:1048C0001A6010BD074B084A59210848FDF74CF8FB
:1048D000074B054A5B210548FDF746F8C410002048
:1048E00000001050607D0010C47E0010907D00100C
:1048F000F07D001070B504007F2008404EB2CD0955
:1049000021716570F143C90FE170A07000281BD1BF
:1049100001216171012B19D0402A1FD8E262302297
:10492000A354002D1ED0C3001B4A94466344E36089
:10493000E36800221A60A378002B19D1A360174BFB
:1049400023610123237070BD0021E2E78021C900AB
:104950008A42E3D311001248FDF724F811001048F1
:10496000FDF720F8C3000F4A94466344E360DFE795
:10497000002E09DB0138C0000B4B9C466044A06050
:104980002000FFF779FFDCE70138C000074B9C46A9
:104990006044A060F4E7C046800010500001105051
:1049A000247E0010840010500C001050080010509D
:1049B00070B504000D001600FFF73AFF33002A001F
:1049C0002100FFF797FF70BDF0B5CE46474680B592
:1049D00083B0254B9F6D0026012508E0234B244A18
:1049E000DF212448FCF7C0FFAF436D000136002FE4
:1049F00034D01F2E32D83D42F7D01B4BDB6D1D4209
:104A0000ECD11D4B9D6572080123334059424B4147
:104A1000D9B28946FF211140884634246343343497
:104A20004C431C19154BE418200000F0CDFA002867
:104A3000DAD034234A465343682241464A439B18FE
:104A40000E4AD318DA691979012300930023002054
:104A500000F043FE200000F0F9F9C5E703B0C0BC48
:104A6000B946B046F0BDC046000011504C7E001063
:104A7000D87E0010907D001000301150400A0020B8
:104A800070B51D4A9823D45880235B0225001D4031
:104A90001C4206D1E30612D4E30415D4A54225D165
:104AA00070BDFFF7D3FE01221449002000F0FBFD8A
:104AB000134B802292021A6580256D02EAE71023CB
:104AC0001D43FFF781FFE7E700230E4A13700A4AF0
:104AD000136080235B011D4301220121002000F0AF
:104AE000CFFD074B802212031A65D7E729006140EA
:104AF0000548FCF757FFC046000011500000105059
:104B000000301150F6120020587E001070B50C00D5
:104B100015001E00FFF78CFE33002A00210000F074
:104B20007FFA70BD10B5FFF791FE0123002200212E
:104B30008020FFF7EBFF10BD10B50400037D002BB4
:104B400011D18378002B05D14378002B12D001229C
:104B5000094B9A66802212010849200000F080F972
:104B60000123237510BD8421054B064A49000648E0
:104B7000FCF7FAFE0222EBE700201150FFF7FFFFDF
:104B80006C7E0010A07E0010907D001010B5FFF725
:104B90004FFEFFF7D1FF10BD10B504008378002B46
:104BA00005D14378002B0AD00122064B9A660022D9
:104BB0000549200000F054F90023237510BD02229E
:104BC000F3E7C04600301150FFF7FFFF10B5FFF7C5
:104BD0002FFEFFF7E1FF10BD10B5002804D1012121
:104BE0000520FDF751F910BD7E21034B034AFF312B
:104BF0000348FCF7B9FEC0467C7E0010B47E00106E
:104C0000907D001010B5002804D1064B1970FFF7F5
:104C100089FF10BDC521044B044A49000448FCF734
:104C2000A3FEC046F61200207C7E0010547F0010C8
:104C3000907D001010B5002804D1064B802252024E
:104C4000DA6410BDD221044B044A49000448FCF741
:104C50008BFEC046002011507C7E0010487F001063
:104C6000907D001010B5041E28D100F0C7F8174938
:104C70000520FDF721F9D022D20000211448FFF7CA
:104C8000CFFA144B00221A70134B144A1A600022F8
:104C900040210020FFF78CFE002240218020FFF7FA
:104CA00087FE0F4B01221A6480229205DA6490225B
:104CB0000C4999502000FFF7BDFF10BD60210A4B41
:104CC0000A4AFF310A48FCF74FFEC046814A0010ED
:104CD000400A0020F6120020C4100020800110506D
:104CE00000001150101001007C7E0010F07E0010BA
:104CF000907D001010B5002808D10B785B0602D11A
:104D00004B78052B09D0FFF7A1FD10BDB021054B55
:104D1000054AFF310548FCF727FE054B1A78054B7D
:104D20001A60F0E77C7E00102C7F0010907D001050
:104D3000F61200200000115010B50C0000280DD113
:104D40000A794B790721194009021143E278920749
:104D5000920FA078FFF72CFE012010BDC021034B5D
:104D6000034AFF310348FCF7FFFDC0467C7E00107C
:104D70001C7F0010907D001010B504000800110089
:104D80001A00002C04D10123FFF7C0FE012010BD42
:104D9000E321034B034A49000348FCF7E5FDC04605
:104DA0007C7E00100C7F0010907D001010B5002854
:104DB00003D10800FFF7EAFE10BDD021024B034AE1
:104DC000FF310348FCF7D0FD7C7E0010FC7E001014
:104DD000907D001010B5002803D10800FFF7F6FE03
:104DE00010BDEB21024B034A49000348FCF7BCFD10
:104DF0007C7E0010887E0010907D001010B580230E
:104E00005B040D4A13600D4A13600D4B9A688023B2
:104E10005B049343F9D10B4C9C2200212000FFF747
:104E2000FFF98022520100210748FFF7F9F9092311
:104E300063670333A36710BD00E0004000F000404B
:104E400000C0004000001150000010500023037506
:104E50004375322283548361C36103628362704766
:104E600010B5002902D0C3681B681940002A0FD072
:104E7000114353050CD5C26813685B050BD40A4B6C
:104E80000B401360FFE7FFE7FFE7FFE7FFE7FFE700
:104E9000C368196010BD817843789B00034A9A5813
:104EA0000348FCF77FFDC046FFFBFFFFC403002063
:104EB000647F001070B50400056A8022D2002A4386
:104EC000C378002B14D06379002B1ED08021890178
:104ED0000A4301214B4063712423E35C002B02D081
:104EE0008023DB011A4300212000FFF7B9FF70BDCA
:104EF000836AC2699446634419002A000069FFF777
:104F000095F9842212022A43DDE70021E0E770B51B
:104F100004000E001500437D002B18D1A56100236D
:104F2000E3612A1CABB2402B00D9402292B222622C
:104F300001236375A662AD1A6B425D412423E554DB
:104F400001330022E2542000FFF7B4FF70BDFFF7E9
:104F50007DFFE3E770B50400C3681B689D05AD0DD8
:104F6000C278002A13D11B040BD4C3695B19C36137
:104F7000E378002B04D0236AAB4201D9E369A36133
:104F800070BD0D4B0D4ABF210D48FCF7EDFC1B0415
:104F90000CD5836AC2699446634418002A002169CB
:104FA000FFF744F9E3695B19E361E1E7054B034A65
:104FB000C9210348FCF7D8FC847F0010A0800010B2
:104FC000A47F00100480001070B50400457D002D02
:104FD00017D0FFF7BFFFA169E2698B1A402B00D9F8
:104FE00040232362D318CB1A584243412420235430
:104FF00091420BD303D02000FFF75CFF002528006F
:1050000070BD8178034A0448FCF7CCFC0348FCF7E8
:10501000C9FCC046C403002024800010508000104A
:1050200010B50478002C04D0002B09D0FFF76FFFD7
:1050300010BD0C21044B054AFF310548FCF794FCD8
:10504000FFF7C2FFF4E7C046748000108C800010A8
:10505000A47F001070B5002503E00E787519ADB27D
:10506000891995420AD24C78052CF6D18E787A347B
:10507000344064000419F609A355EEE770BD000042
:1050800070B505001B4C372200212000FFF7C8F83F
:10509000E01C1022FF21FFF7C3F82000133012227A
:1050A000FF21FFF7BDF800F0D5FF00240EE0E3007C
:1050B0001B1B9A00104B1B689B1802E0230010E09A
:1050C00000235B68280098470134E4B20B4B1B783F
:1050D000A3420ED30A4A002AF0D0A342E7D8E31A2B
:1050E000DBB2002BECD1DA00D21A9200054B9B18F0
:1050F000E7E770BD6408002034050020F4120020AA
:10510000714500104C82001070B505000C001600AF
:10511000086900F0A9FFE36831002800984770BDD6
:10512000F0B5D6464F464646C0B580460139C8B2AE
:10513000FFF752FB002802D04378022B0AD0604AC6
:1051400060496148FFF7A6F90020E0BCBA46B146C5
:10515000A846F0BDC5796A1101235C4C1A401101C3
:1051600022781026B2430A432270AD112B405B0116
:10517000D2B220218A431343237006000936817876
:10518000C3781B020B4382469A4478E03378B146D9
:10519000F6187BE0CA2292004A494B48FFF77AF999
:1051A0000020D2E7E3001B1B9A00494B1B689B18A9
:1051B00002E0230014E000239B683A0031004046DF
:1051C0009847051E14D10134E4B2424B1B78A34228
:1051D00051D3414A002AECD0A342E3D8E31ADBB210
:1051E000002BE8D1DA00D21A92003C4B9B18E3E77F
:1051F000082823D9874221D3B278344B9B18DB7817
:10520000FF2B22D1314B9B18DC704B46002B2AD050
:105210009A78B3789A421FD14B461A7973799A4299
:105220001AD101234A46D2789A421CD9B17859182A
:10523000264A5218D4700133DBB2F3E7284A2149D9
:105240002148FFF727F900207FE7264A1D491E481D
:10525000FFF720F9002078E7234A1A491A48FFF798
:1052600019F9002071E7194823002A003100133092
:10527000FFF7F0FE7619174B1B78A3420FD3564564
:1052800015D273780B2B81D0002399467378042BA9
:1052900000D07FE753469F1BBFB2002495E7D5227D
:1052A000920008490848FFF7F5F800204DE70F4B3A
:1052B000002B03D000E000BF012046E7012044E7B7
:1052C0001303000000820010B88000106408002062
:1052D00034050020F4120020714500104C820010AB
:1052E0003603000039030000420300000000000004
:1052F000F0B583B005000C00CB7888780F2B5ED812
:105300009B00324AD3589F46FFF762FA02001223ED
:105310002100280000F04AFE52E02D4B002B10D057
:1053200000E000BF06006B469F1D811C0222380072
:10533000FEF77CFF3B8832002100280000F036FE9B
:105340003EE000203CE0FFF747FA061E0DD06B461A
:105350009F1D811C02223800FEF768FF3B88320047
:105360002100280000F022FE2AE01A4A1A491B48B0
:10537000FFF790F8002023E00B79497909021943DF
:10538000FFF72EFA021E1DD003782100280000F03E
:105390000DFE15E0124B002B16D000E000BF021EE0
:1053A00005D003782100280000F000FE08E0F0326C
:1053B000920009490948FFF76DF8002000E000203D
:1053C00003B0F0BD0020FBE70020F9E7D08000101B
:1053D00000000000A2030000E8810010B880001067
:1053E00000000000024B5878431E9841C0B270473D
:1053F00064080020024B18784007C00F7047C04671
:105400006408002010B5372200212348FEF708FF6A
:10541000224C2000FCF70EF8214B1C60214C200090
:105420001830FCF71AF8200001F0CFFB1E4B1C606F
:105430001E4B002B04D01E48FFF79AF81D4B186036
:1054400000240DE0E3001B1B9A001A4B1B689B18FD
:1054500002E023000FE000231B6898470134E4B208
:10546000134B1B78A3420ED3104A002AF1D0A3425B
:10547000E8D8E31ADBB2002BEDD1DA00D21A9200A1
:105480000D4B9B18E8E70020FFF7ECFB0020FFF72F
:10549000A3FB012010BDC046640800201C080020AA
:1054A0009C080020CC030020A008002071450010BB
:1054B000F4120020340500204C82001010B50100C9
:1054C0004378042B00D16CE005D8022B32D0032B9B
:1054D00000D09FE010BD052B00D09BE0624B1B78F5
:1054E000DB07F7D5604A13780420834313705F4BC2
:1054F0001C686369002B00D086E0A269EFF310807E
:1055000072B61368002BFCD0BFF35F8FE061200000
:1055100001F0EFFAA269E369BFF35F8F0021116028
:1055200083F310880028D5D1AD2251495148FEF7A8
:10553000B1FFCFE74C4B1A78012082431A701A78DA
:10554000013082431A7000225A701A780230824366
:105550001A70464B1C686369002B1CD1A269EFF3DB
:10556000108072B61368002BFCD0BFF35F8FE06130
:10557000200001F0BEFAA269E369BFF35F8F00214A
:10558000116083F310880028A4D1AD22384939482E
:10559000FEF780FF9EE7384B354AA7213748FCF7D6
:1055A000E3F9314B1B78DB0700D493E72E4A1378DD
:1055B0000420034313702D4B1C686369002B1DD11D
:1055C000A269EFF3108072B61368002BFCD0BFF312
:1055D0005F8FE061200001F08CFAA269E369BFF3FC
:1055E0005F8F0021116083F31088002800D071E7DD
:1055F000AD221F491F48FEF74DFF6BE71E4B1C4AAB
:10560000A7211E48FCF7B0F91B4B194AA7211B48DC
:10561000FCF7AAF9154B1C686369002B1DD1A26920
:10562000EFF3108072B61368002BFCD0BFF35F8FCE
:10563000E061200001F05DFAA269E369BFF35F8FCA
:105640000021116083F31088002800D042E7AD22CA
:1056500007490848FEF71EFF3CE7074B044AA7210D
:105660000648FCF781F9C04664080020A008002025
:10567000D8810010B8800010108100102081001027
:1056800070B584B006000D0014000C22002101A8A2
:10569000FEF7C6FD6B461E715D71210001A8FFF784
:1056A0000DFF04B070BD70B584B006000D0014008D
:1056B0000C22002101A8FEF7B3FD6B461E710623E4
:1056C0006A4653710822290002A8FEF7AFFD2100A7
:1056D00001A8FFF7F3FE04B070BDF0B5CE46474613
:1056E00080B585B080460F0016001D000CAB1B78FE
:1056F000994601AC0C2200212000FEF791FD4346A3
:105700002370072363702771039665714946200053
:10571000FFF7D4FE05B0C0BCB946B046F0BD10B529
:10572000FFF70AFB10BD0000F0B5D6464F464646CF
:10573000C0B581460C0017009846089B9A46002584
:1057400016E0184A18491948FEF7A4FE0026300052
:10575000E0BCBA46B146A846F0BD154A1249134806
:10576000FEF798FEF3E7099A13702378E4180135E1
:10577000AF4214DD6378052BE3D1E1788907890F07
:105780004145DED121004846FFF7C9FF061EE4D09F
:10579000A378DA09012AE6D052461370E5E701261C
:1057A000D5E7C0462D040000C4810010B880001069
:1057B0002E04000070B57F250D40CC096A001E4BF9
:1057C0009B181B1920335B79DB07DE0F002B30D1D0
:1057D000194B9B181B1920335B795B072AD4174B95
:1057E00018680121494201F0CBFA6A00124B9B185C
:1057F0001B1920335B79DB0708D40F4B9B181B194F
:1058000020335B795B0712D5002600E00026002ECE
:1058100008D06D0008494D192C19203463790422F1
:1058200013436371054B186801F08AFA02E0012600
:10583000EDE70026300070BD640800209C080020C1
:1058400070B57F250D40CC09154B186801214942E0
:1058500001F096FA6A00134B9B181B1920335B79F1
:10586000DB0708D40F4B9B181B1920335B795B07B0
:1058700013D4002600E00026002E08D06900094D50
:105880006D182C1920346379042293436371044BFF
:10589000186801F055FA300070BD0126ECE7C046EB
:1058A0009C08002064080020F0B5C64600B582B010
:1058B00001937F250D40CE096F00174CE419A41900
:1058C00020346479E4071DD46F00134CE419A41943
:1058D000203463790127BC4667463B436371019BD3
:1058E000FFF74AFA002813D16D000B4B5D19AE1972
:1058F0002036737901229343737173790332934392
:10590000737105E0054A06490648FEF7C3FD00200D
:1059100002B080BCB846F0BD6408002095040000C9
:10592000B4810010B880001070B57F240C40CD0900
:10593000FFF73CFA6400064B1B195B1920335A79B8
:1059400002210A435A715A7901210A435A7170BDE2
:105950006408002070B57F240C40CD09FFF73AFAA7
:105960006400064B1B195B1920335A7902218A43C4
:105970005A715A7901398A435A7170BD64080020FE
:105980007F220A40CB09520003498918C9182031E7
:1059900048798007C00F704764080020F0B5C646FC
:1059A00000B582B005000C00002000F05DFB2278FD
:1059B00060231340602B12D0402B17D02278D206E0
:1059C000D20E012A00D1CAE0022A00D104E1002A45
:1059D0001CD00026300002B080BCB846F0BDC14AE1
:1059E000C149C248FEF756FD0026F3E7C04B002B25
:1059F00000D164E1BF4B002B02D0180000F034FB53
:105A00002100280000E000BF0600E3E7202B0AD0B9
:105A1000002B00D05BE16378092B00D959E19B0092
:105A2000B54AD3589F4623790F2B00D949E1B34A91
:105A3000D318DB78B24A002A05D0B24A12789342D2
:105A400012D39B1ADBB2002B00D03CE1D900CB1A59
:105A50009B00AD49C918002900D136E12200280079
:105A6000FFF752FB0600B5E7D900CB1A9B00A74A07
:105A70001168C918EFE7200000F0FCFAA1782800AF
:105A8000FFF7C0F89D4A137802210B4313700126DB
:105A9000A0E79A4B5B786A46063213700123210017
:105AA000280000F083FA012694E7A778934B5B78EF
:105AB000002B01D1002F07D1904B5F7021002800EF
:105AC00000F058FA012685E739002800FFF728FB87
:105AD000061EF1D18E4A84498448FEF7DBFC79E743
